Archive member included because of file (symbol)

/usr/lib/gcc/avr/4.8.2/avr25/tiny-stack/libgcc.a(_exit.o)
                              /usr/lib/gcc/avr/4.8.2/../../../avr/lib/crttn25.o (exit)
/usr/lib/gcc/avr/4.8.2/avr25/tiny-stack/libgcc.a(_copy_data.o)
                              /tmp/ccgHA6fR.o (__do_copy_data)
/usr/lib/gcc/avr/4.8.2/avr25/tiny-stack/libgcc.a(_clear_bss.o)
                              /tmp/ccgHA6fR.o (__do_clear_bss)

Allocating common symbols
Common symbol       size              file

inbuf               0x10              /tmp/ccI6eKEi.o
qout                0x1               /tmp/ccI6eKEi.o
qin                 0x1               /tmp/ccI6eKEi.o
input_queue         0x5               /tmp/ccgHA6fR.o

Memory Configuration

Name             Origin             Length             Attributes
text             0x00000000         0x00002000         xr
data             0x00800060         0x0000ffa0         rw !x
eeprom           0x00810000         0x00010000         rw !x
fuse             0x00820000         0x00000400         rw !x
lock             0x00830000         0x00000400         rw !x
signature        0x00840000         0x00000400         rw !x
user_signatures  0x00850000         0x00000400         rw !x
*default*        0x00000000         0xffffffff

Linker script and memory map

LOAD /usr/lib/gcc/avr/4.8.2/../../../avr/lib/crttn25.o
LOAD /usr/lib/gcc/avr/4.8.2/../../../avr/lib/libm.a
LOAD /tmp/ccgHA6fR.o
LOAD /tmp/cctxRyEF.o
LOAD /tmp/cc6PJo5t.o
LOAD /tmp/ccI6eKEi.o
LOAD /tmp/cc8gwEj7.o
START GROUP
LOAD /usr/lib/gcc/avr/4.8.2/avr25/tiny-stack/libgcc.a
LOAD /usr/lib/gcc/avr/4.8.2/../../../avr/lib/libm.a
LOAD /usr/lib/gcc/avr/4.8.2/../../../avr/lib/libc.a
END GROUP

.hash
 *(.hash)

.dynsym
 *(.dynsym)

.dynstr
 *(.dynstr)

.gnu.version
 *(.gnu.version)

.gnu.version_d
 *(.gnu.version_d)

.gnu.version_r
 *(.gnu.version_r)

.rel.init
 *(.rel.init)

.rela.init
 *(.rela.init)

.rel.text
 *(.rel.text)
 *(.rel.text.*)
 *(.rel.gnu.linkonce.t*)

.rela.text
 *(.rela.text)
 *(.rela.text.*)
 *(.rela.gnu.linkonce.t*)

.rel.fini
 *(.rel.fini)

.rela.fini
 *(.rela.fini)

.rel.rodata
 *(.rel.rodata)
 *(.rel.rodata.*)
 *(.rel.gnu.linkonce.r*)

.rela.rodata
 *(.rela.rodata)
 *(.rela.rodata.*)
 *(.rela.gnu.linkonce.r*)

.rel.data
 *(.rel.data)
 *(.rel.data.*)
 *(.rel.gnu.linkonce.d*)

.rela.data
 *(.rela.data)
 *(.rela.data.*)
 *(.rela.gnu.linkonce.d*)

.rel.ctors
 *(.rel.ctors)

.rela.ctors
 *(.rela.ctors)

.rel.dtors
 *(.rel.dtors)

.rela.dtors
 *(.rela.dtors)

.rel.got
 *(.rel.got)

.rela.got
 *(.rela.got)

.rel.bss
 *(.rel.bss)

.rela.bss
 *(.rela.bss)

.rel.plt
 *(.rel.plt)

.rela.plt
 *(.rela.plt)

.text           0x00000000      0x6cc
 *(.vectors)
 .vectors       0x00000000       0x1e /usr/lib/gcc/avr/4.8.2/../../../avr/lib/crttn25.o
                0x00000000                __vectors
                0x00000000                __vector_default
 *(.vectors)
 *(.progmem.gcc*)
 *(.progmem*)
                0x0000001e                . = ALIGN (0x2)
                0x0000001e                __trampolines_start = .
 *(.trampolines)
 .trampolines   0x0000001e        0x0 linker stubs
 *(.trampolines*)
                0x0000001e                __trampolines_end = .
 *(.jumptables)
 *(.jumptables*)
 *(.lowtext)
 *(.lowtext*)
                0x0000001e                __ctors_start = .
 *(.ctors)
                0x0000001e                __ctors_end = .
                0x0000001e                __dtors_start = .
 *(.dtors)
                0x0000001e                __dtors_end = .
 SORT(*)(.ctors)
 SORT(*)(.dtors)
 *(.init0)
 .init0         0x0000001e        0x0 /usr/lib/gcc/avr/4.8.2/../../../avr/lib/crttn25.o
                0x0000001e                __init
 *(.init0)
 *(.init1)
 *(.init1)
 *(.init2)
 .init2         0x0000001e        0x8 /usr/lib/gcc/avr/4.8.2/../../../avr/lib/crttn25.o
 *(.init2)
 *(.init3)
 *(.init3)
 *(.init4)
 .init4         0x00000026       0x16 /usr/lib/gcc/avr/4.8.2/avr25/tiny-stack/libgcc.a(_copy_data.o)
                0x00000026                __do_copy_data
 .init4         0x0000003c       0x10 /usr/lib/gcc/avr/4.8.2/avr25/tiny-stack/libgcc.a(_clear_bss.o)
                0x0000003c                __do_clear_bss
 *(.init4)
 *(.init5)
 *(.init5)
 *(.init6)
 *(.init6)
 *(.init7)
 *(.init7)
 *(.init8)
 *(.init8)
 *(.init9)
 .init9         0x0000004c        0x4 /usr/lib/gcc/avr/4.8.2/../../../avr/lib/crttn25.o
 *(.init9)
 *(.text)
 .text          0x00000050        0x2 /usr/lib/gcc/avr/4.8.2/../../../avr/lib/crttn25.o
                0x00000050                __vector_1
                0x00000050                __bad_interrupt
                0x00000050                __vector_6
                0x00000050                __vector_3
                0x00000050                __vector_11
                0x00000050                __vector_13
                0x00000050                __vector_7
                0x00000050                __vector_5
                0x00000050                __vector_4
                0x00000050                __vector_9
                0x00000050                __vector_8
                0x00000050                __vector_14
 .text          0x00000052        0x0 /tmp/ccgHA6fR.o
 .text          0x00000052        0x0 /tmp/cctxRyEF.o
 .text          0x00000052        0x0 /tmp/cc6PJo5t.o
 .text          0x00000052        0x0 /tmp/ccI6eKEi.o
 .text          0x00000052        0x0 /tmp/cc8gwEj7.o
 .text          0x00000052        0x0 /usr/lib/gcc/avr/4.8.2/avr25/tiny-stack/libgcc.a(_exit.o)
 .text          0x00000052        0x0 /usr/lib/gcc/avr/4.8.2/avr25/tiny-stack/libgcc.a(_copy_data.o)
 .text          0x00000052        0x0 /usr/lib/gcc/avr/4.8.2/avr25/tiny-stack/libgcc.a(_clear_bss.o)
                0x00000052                . = ALIGN (0x2)
 *(.text.*)
 .text.queue_getbyte.constprop.0
                0x00000052       0x26 /tmp/ccgHA6fR.o
 .text.go_to_sleep
                0x00000078       0x1e /tmp/ccgHA6fR.o
                0x00000078                go_to_sleep
 .text.__vector_12
                0x00000096       0x34 /tmp/ccgHA6fR.o
                0x00000096                __vector_12
 .text.setupPWM
                0x000000ca       0x16 /tmp/ccgHA6fR.o
                0x000000ca                setupPWM
 .text.setupPinInterrupts
                0x000000e0        0xa /tmp/ccgHA6fR.o
                0x000000e0                setupPinInterrupts
 .text.startup.main
                0x000000ea      0x186 /tmp/ccgHA6fR.o
                0x000000ea                main
 .text.SendByte
                0x00000270       0x5a /tmp/cctxRyEF.o
                0x00000270                SendByte
 .text.LCDInit  0x000002ca       0x44 /tmp/cctxRyEF.o
                0x000002ca                LCDInit
 .text.LCDMove  0x0000030e       0x1a /tmp/cctxRyEF.o
                0x0000030e                LCDMove
 .text.LCDString
                0x00000328       0x1a /tmp/cctxRyEF.o
                0x00000328                LCDString
 .text.LCDHex8  0x00000342       0x32 /tmp/cctxRyEF.o
                0x00000342                LCDHex8
 .text.LCDHex16
                0x00000374       0x36 /tmp/cctxRyEF.o
                0x00000374                LCDHex16
 .text.PIDInit  0x000003aa        0xe /tmp/cc6PJo5t.o
                0x000003aa                PIDInit
 .text.PIDIterate
                0x000003b8        0xc /tmp/cc6PJo5t.o
                0x000003b8                PIDIterate
 .text.__vector_10
                0x000003c4      0x134 /tmp/ccI6eKEi.o
                0x000003c4                __vector_10
 .text.__vector_2
                0x000004f8       0x34 /tmp/ccI6eKEi.o
                0x000004f8                __vector_2
 .text.softuart_init
                0x0000052c       0x2c /tmp/ccI6eKEi.o
                0x0000052c                softuart_init
 .text.softuart_turn_rx_on
                0x00000558        0x6 /tmp/ccI6eKEi.o
                0x00000558                softuart_turn_rx_on
 .text.softuart_turn_rx_off
                0x0000055e        0x8 /tmp/ccI6eKEi.o
                0x0000055e                softuart_turn_rx_off
 .text.softuart_getchar
                0x00000566       0x28 /tmp/ccI6eKEi.o
                0x00000566                softuart_getchar
 .text.softuart_kbhit
                0x0000058e       0x12 /tmp/ccI6eKEi.o
                0x0000058e                softuart_kbhit
 .text.softuart_flush_input_buffer
                0x000005a0        0xa /tmp/ccI6eKEi.o
                0x000005a0                softuart_flush_input_buffer
 .text.softuart_transmit_busy
                0x000005aa        0xe /tmp/ccI6eKEi.o
                0x000005aa                softuart_transmit_busy
 .text.softuart_putchar
                0x000005b8       0x2c /tmp/ccI6eKEi.o
                0x000005b8                softuart_putchar
 .text.softuart_puts
                0x000005e4       0x16 /tmp/ccI6eKEi.o
                0x000005e4                softuart_puts
 .text.softuart_puts_p
                0x000005fa       0x1c /tmp/ccI6eKEi.o
                0x000005fa                softuart_puts_p
 .text.queue_dequeue
                0x00000616       0x50 /tmp/cc8gwEj7.o
                0x00000616                queue_dequeue
 .text.queue_enqueue
                0x00000666       0x54 /tmp/cc8gwEj7.o
                0x00000666                queue_enqueue
 .text.queue_init
                0x000006ba        0xe /tmp/cc8gwEj7.o
                0x000006ba                queue_init
 .text.libgcc.mul
                0x000006c8        0x0 /usr/lib/gcc/avr/4.8.2/avr25/tiny-stack/libgcc.a(_exit.o)
 .text.libgcc.div
                0x000006c8        0x0 /usr/lib/gcc/avr/4.8.2/avr25/tiny-stack/libgcc.a(_exit.o)
 .text.libgcc   0x000006c8        0x0 /usr/lib/gcc/avr/4.8.2/avr25/tiny-stack/libgcc.a(_exit.o)
 .text.libgcc.prologue
                0x000006c8        0x0 /usr/lib/gcc/avr/4.8.2/avr25/tiny-stack/libgcc.a(_exit.o)
 .text.libgcc.builtins
                0x000006c8        0x0 /usr/lib/gcc/avr/4.8.2/avr25/tiny-stack/libgcc.a(_exit.o)
 .text.libgcc.fmul
                0x000006c8        0x0 /usr/lib/gcc/avr/4.8.2/avr25/tiny-stack/libgcc.a(_exit.o)
 .text.libgcc.fixed
                0x000006c8        0x0 /usr/lib/gcc/avr/4.8.2/avr25/tiny-stack/libgcc.a(_exit.o)
 .text.libgcc.mul
                0x000006c8        0x0 /usr/lib/gcc/avr/4.8.2/avr25/tiny-stack/libgcc.a(_copy_data.o)
 .text.libgcc.div
                0x000006c8        0x0 /usr/lib/gcc/avr/4.8.2/avr25/tiny-stack/libgcc.a(_copy_data.o)
 .text.libgcc   0x000006c8        0x0 /usr/lib/gcc/avr/4.8.2/avr25/tiny-stack/libgcc.a(_copy_data.o)
 .text.libgcc.prologue
                0x000006c8        0x0 /usr/lib/gcc/avr/4.8.2/avr25/tiny-stack/libgcc.a(_copy_data.o)
 .text.libgcc.builtins
                0x000006c8        0x0 /usr/lib/gcc/avr/4.8.2/avr25/tiny-stack/libgcc.a(_copy_data.o)
 .text.libgcc.fmul
                0x000006c8        0x0 /usr/lib/gcc/avr/4.8.2/avr25/tiny-stack/libgcc.a(_copy_data.o)
 .text.libgcc.fixed
                0x000006c8        0x0 /usr/lib/gcc/avr/4.8.2/avr25/tiny-stack/libgcc.a(_copy_data.o)
 .text.libgcc.mul
                0x000006c8        0x0 /usr/lib/gcc/avr/4.8.2/avr25/tiny-stack/libgcc.a(_clear_bss.o)
 .text.libgcc.div
                0x000006c8        0x0 /usr/lib/gcc/avr/4.8.2/avr25/tiny-stack/libgcc.a(_clear_bss.o)
 .text.libgcc   0x000006c8        0x0 /usr/lib/gcc/avr/4.8.2/avr25/tiny-stack/libgcc.a(_clear_bss.o)
 .text.libgcc.prologue
                0x000006c8        0x0 /usr/lib/gcc/avr/4.8.2/avr25/tiny-stack/libgcc.a(_clear_bss.o)
 .text.libgcc.builtins
                0x000006c8        0x0 /usr/lib/gcc/avr/4.8.2/avr25/tiny-stack/libgcc.a(_clear_bss.o)
 .text.libgcc.fmul
                0x000006c8        0x0 /usr/lib/gcc/avr/4.8.2/avr25/tiny-stack/libgcc.a(_clear_bss.o)
 .text.libgcc.fixed
                0x000006c8        0x0 /usr/lib/gcc/avr/4.8.2/avr25/tiny-stack/libgcc.a(_clear_bss.o)
                0x000006c8                . = ALIGN (0x2)
 *(.fini9)
 .fini9         0x000006c8        0x0 /usr/lib/gcc/avr/4.8.2/avr25/tiny-stack/libgcc.a(_exit.o)
                0x000006c8                exit
                0x000006c8                _exit
 *(.fini9)
 *(.fini8)
 *(.fini8)
 *(.fini7)
 *(.fini7)
 *(.fini6)
 *(.fini6)
 *(.fini5)
 *(.fini5)
 *(.fini4)
 *(.fini4)
 *(.fini3)
 *(.fini3)
 *(.fini2)
 *(.fini2)
 *(.fini1)
 *(.fini1)
 *(.fini0)
 .fini0         0x000006c8        0x4 /usr/lib/gcc/avr/4.8.2/avr25/tiny-stack/libgcc.a(_exit.o)
 *(.fini0)
                0x000006cc                _etext = .

.data           0x00800060       0x2c load address 0x000006cc
                0x00800060                PROVIDE (__data_start, .)
 *(.data)
 .data          0x00800060        0x0 /usr/lib/gcc/avr/4.8.2/../../../avr/lib/crttn25.o
 .data          0x00800060        0x0 /tmp/ccgHA6fR.o
 .data          0x00800060        0x0 /tmp/cctxRyEF.o
 .data          0x00800060        0x0 /tmp/cc6PJo5t.o
 .data          0x00800060        0x0 /tmp/ccI6eKEi.o
 .data          0x00800060        0x0 /tmp/cc8gwEj7.o
 .data          0x00800060        0x0 /usr/lib/gcc/avr/4.8.2/avr25/tiny-stack/libgcc.a(_exit.o)
 .data          0x00800060        0x0 /usr/lib/gcc/avr/4.8.2/avr25/tiny-stack/libgcc.a(_copy_data.o)
 .data          0x00800060        0x0 /usr/lib/gcc/avr/4.8.2/avr25/tiny-stack/libgcc.a(_clear_bss.o)
 *(.data*)
 .data.initq    0x00800060        0x9 /tmp/cctxRyEF.o
 .data.initp    0x00800069        0xa /tmp/cctxRyEF.o
 *(.rodata)
 *(.rodata*)
 .rodata.str1.1
                0x00800073        0x9 /tmp/ccgHA6fR.o
 .rodata.hex_digits
                0x0080007c       0x10 /tmp/cctxRyEF.o
 *(.gnu.linkonce.d*)
                0x0080008c                . = ALIGN (0x2)
                0x0080008c                _edata = .
                0x0080008c                PROVIDE (__data_end, .)

.bss            0x0080008c       0x29
                0x0080008c                PROVIDE (__bss_start, .)
 *(.bss)
 .bss           0x0080008c        0x0 /usr/lib/gcc/avr/4.8.2/../../../avr/lib/crttn25.o
 .bss           0x0080008c        0x0 /tmp/ccgHA6fR.o
 .bss           0x0080008c        0x0 /tmp/cctxRyEF.o
 .bss           0x0080008c        0x0 /tmp/cc6PJo5t.o
 .bss           0x0080008c        0x0 /tmp/ccI6eKEi.o
 .bss           0x0080008c        0x0 /tmp/cc8gwEj7.o
 .bss           0x0080008c        0x0 /usr/lib/gcc/avr/4.8.2/avr25/tiny-stack/libgcc.a(_exit.o)
 .bss           0x0080008c        0x0 /usr/lib/gcc/avr/4.8.2/avr25/tiny-stack/libgcc.a(_copy_data.o)
 .bss           0x0080008c        0x0 /usr/lib/gcc/avr/4.8.2/avr25/tiny-stack/libgcc.a(_clear_bss.o)
 *(.bss*)
 .bss.time_irq  0x0080008c        0x2 /tmp/ccgHA6fR.o
 .bss.sv        0x0080008e        0x2 /tmp/cc6PJo5t.o
 .bss.pv        0x00800090        0x2 /tmp/cc6PJo5t.o
 .bss.internal_tx_buffer
                0x00800092        0x2 /tmp/ccI6eKEi.o
 .bss.bits_left_in_tx
                0x00800094        0x1 /tmp/ccI6eKEi.o
 .bss.timer_tx_ctr
                0x00800095        0x1 /tmp/ccI6eKEi.o
 .bss.flag_tx_busy
                0x00800096        0x1 /tmp/ccI6eKEi.o
 .bss.bits_left_in_rx
                0x00800097        0x1 /tmp/ccI6eKEi.o
 .bss.timer_rx_ctr
                0x00800098        0x1 /tmp/ccI6eKEi.o
 .bss.internal_rx_buffer
                0x00800099        0x1 /tmp/ccI6eKEi.o
 .bss.rx_mask   0x0080009a        0x1 /tmp/ccI6eKEi.o
 .bss.flag_rx_waiting_for_stop_bit
                0x0080009b        0x1 /tmp/ccI6eKEi.o
 .bss.flag_rx_ready
                0x0080009c        0x1 /tmp/ccI6eKEi.o
 .bss.flag_rx_off
                0x0080009d        0x1 /tmp/ccI6eKEi.o
 *(COMMON)
 COMMON         0x0080009e        0x5 /tmp/ccgHA6fR.o
                0x0080009e                input_queue
 COMMON         0x008000a3       0x12 /tmp/ccI6eKEi.o
                0x008000a3                inbuf
                0x008000b3                qout
                0x008000b4                qin
                0x008000b5                PROVIDE (__bss_end, .)
                0x000006cc                __data_load_start = LOADADDR (.data)
                0x000006f8                __data_load_end = (__data_load_start + SIZEOF (.data))

.noinit         0x008000b5        0x0
                0x008000b5                PROVIDE (__noinit_start, .)
 *(.noinit*)
                0x008000b5                PROVIDE (__noinit_end, .)
                0x008000b5                _end = .
                0x008000b5                PROVIDE (__heap_start, .)

.eeprom         0x00810000        0x0
 *(.eeprom*)
                0x00810000                __eeprom_end = .

.fuse
 *(.fuse)
 *(.lfuse)
 *(.hfuse)
 *(.efuse)

.lock
 *(.lock*)

.signature
 *(.signature*)

.user_signatures
 *(.user_signatures*)

.stab           0x00000000      0x6b4
 *(.stab)
 .stab          0x00000000      0x6b4 /usr/lib/gcc/avr/4.8.2/../../../avr/lib/crttn25.o

.stabstr        0x00000000       0x54
 *(.stabstr)
 .stabstr       0x00000000       0x54 /usr/lib/gcc/avr/4.8.2/../../../avr/lib/crttn25.o

.stab.excl
 *(.stab.excl)

.stab.exclstr
 *(.stab.exclstr)

.stab.index
 *(.stab.index)

.stab.indexstr
 *(.stab.indexstr)

.comment        0x00000000       0x11
 *(.comment)
 .comment       0x00000000       0x11 /tmp/ccgHA6fR.o
                                 0x12 (size before relaxing)
 .comment       0x00000000       0x12 /tmp/cctxRyEF.o
 .comment       0x00000000       0x12 /tmp/cc6PJo5t.o
 .comment       0x00000000       0x12 /tmp/ccI6eKEi.o
 .comment       0x00000000       0x12 /tmp/cc8gwEj7.o

.debug
 *(.debug)

.line
 *(.line)

.debug_srcinfo
 *(.debug_srcinfo)

.debug_sfnames
 *(.debug_sfnames)

.debug_aranges
 *(.debug_aranges)

.debug_pubnames
 *(.debug_pubnames)

.debug_info
 *(.debug_info)
 *(.gnu.linkonce.wi.*)

.debug_abbrev
 *(.debug_abbrev)

.debug_line
 *(.debug_line)

.debug_frame
 *(.debug_frame)

.debug_str
 *(.debug_str)

.debug_loc
 *(.debug_loc)

.debug_macinfo
 *(.debug_macinfo)

.debug_pubtypes
 *(.debug_pubtypes)

.debug_ranges
 *(.debug_ranges)

.debug_macro
 *(.debug_macro)
OUTPUT(coldstart.elf elf32-avr)
LOAD linker stubs
