:100000000EC026C025C0C3C023C022C021C020C04E
:100010004CC01EC0AAC11CC052C01AC019C01124B5
:100020001FBECFEDCDBF10E0A0E6B0E0E8EEF5E0FA
:1000300002C005900D92A239B107D9F710E0A2E9EC
:10004000B0E001C01D92A83EB107E1F726D0CAC2B8
:10005000D7CF95B7977E982B95BFF89485B78062D8
:1000600085BF7894889585B78F7D85BF78940895EE
:10007000339A85B7877E886085BF85B7806285BFE4
:1000800078948895F8943699FBCF85B78F7D85BF96
:100090007894339884B195B10895B7D060E081E049
:1000A000D6D083E790E0E0D0FFCF1F920F920FB63B
:1000B0000F9211240F900FBE0F901F9018951F9252
:1000C0000F920FB60F9211248F939F9381B5806486
:1000D00081BD80919B0090919C00019690939C0023
:1000E00080939B009F918F910F900FBE0F901F9058
:1000F000189581B5866481BD089580B5846080BD02
:1001000080B5816080BD80B5826080BD089580B576
:100110008B7F80BD80B58E7F80BD80B58D7F80BD9B
:10012000089520919B0030919C00280F391F8091E9
:100130009B0090919C0082179307C8F308951FBC01
:1001400080E38EBD80B78F6080BF89B7806489BF30
:10015000089514BE81B5886181BD11BC089580B732
:10016000876080BF8CB580658CBD84E68BBD87ECD5
:100170008DBD1FBC089588B390E1892788BB089581
:10018000C49A0895C49808958111FACFFBCF1F92A5
:100190000F920FB60F9211241FBC0F900FBE0F903D
:1001A0001F90189527E030E090E0FC01022E02C07D
:1001B000F595E7950A94E2F7E0FF02C0C09A01C006
:1001C000C098C29A52E05A95F1F700C0C2982150E7
:1001D000310958F7C29A82E08A95F1F700C0C298B7
:1001E000662311F0C09A01C0C098C19A92E09A9516
:1001F000F1F700C0C19880E0841731F05AE65A95B3
:10020000F1F700C08F5FF8CF08950F931F93CF933E
:10021000DF9387B3876087BB2FEF89EF90E0215092
:1002200080409040E1F700C00000C9E6D0E000E661
:1002300010E08991882331F0F80141918F0160E04D
:10024000B1DFF7CFDF91CF911F910F910895982FD4
:1002500080FD02C080E801C080EC860F923008F07B
:10026000805F41E060E09ECFCF93DF93EC01899106
:10027000882321F041E061E095DFF9CFDF91CF9154
:100280000895CF93C82FE82FF0E084E0F595E79527
:100290008A95E1F7EF57FF4F41E061E0808182DF0F
:1002A000CF70EC2FF0E0EF57FF4F41E061E080812D
:1002B000CF9178CF1F93CF93DF93EC011CE0FE0129
:1002C000012E02C0F695E7950A94E2F7EF70FF273A
:1002D000EF57FF4F41E061E0808164DF14501C3F25
:1002E00071F7DF91CF911F9108958BE790E0909384
:1002F0009E0080939D0008959093A00080939F009E
:1003000080E00895EF92FF920F931F93CF93DF93B6
:100310008C014091A100C1E0D0E020E030E0E0E0BD
:10032000F0E093E0E92EF12CD801A20FB31F8C91DD
:1003300081113196C901B7012ED1029739F4329754
:100340000CF04C2BCC0FDD1FE0E0F0E02F5F3F4FB7
:100350002831310549F74093A100842FDF91CF91D7
:100360001F910F91FF90EF9008951F920F920FB67B
:100370000F9211242F933F934F935F936F937F932B
:100380008F939F93AF93BF93CF93DF93EF93FF939D
:100390008091AB00813019F58091AA008150E9F479
:1003A0008091A7009091A80080FF02C0C19801C071
:1003B000C19A8091A7009091A800969587959093F7
:1003C000A8008093A7008091A90081508093A90084
:1003D000811102C01092AB0083E08093AA0080914B
:1003E000C50081114FC08091A6008823F1F0809153
:1003F000A50081508093A500811144C01092A600F1
:100400001092C400C091C700D0E08CEA90E07ADF7F
:10041000C853DF4F88838091C7008F5F8093C700E8
:10042000803280F11092C7002DC08091C4008111EC
:1004300010C0B39927C081E08093C4001092A4003B
:1004400084E08093A50088E18093A3001092A2002D
:1004500019C08091A200E82FF0E0E455FF4FB39B54
:1004600003C091E0908301C010828F5F8093A2004F
:100470008091A30081508093A300811103C081E08B
:100480008093A600FF91EF91DF91CF91BF91AF9143
:100490009F918F917F916F915F914F913F912F919C
:1004A0000F900FBE0F901F9018951092AB001092F6
:1004B000C4001092C500C198B99ABB989FB7F89430
:1004C00084E489BD82E08ABD83E083BF89B780610F
:1004D00089BF12BE9FBF08951092C500089581E0A4
:1004E0008093C50008959091C6008091C700981729
:1004F000E1F3E92FF0E0E853FF4F80819F5F9032F6
:1005000018F49093C60008951092C60008952091A3
:10051000C70081E09091C600291301C080E00895D2
:100520001092C7001092C60008959091AB0081E030
:10053000913009F080E008959091AB009130E1F3A3
:1005400093E09093AA009AE09093A90090E0880F1E
:10055000991F92609093A8008093A70081E08093F8
:10056000AB000895CF93DF93EC018991882311F0BC
:10057000E3DFFBCFDF91CF910895CF93DF93FC01B1
:100580008491EF012196882319F0D6DFFE01F8CF80
:10059000DF91CF91089597FB072E16F4009406D0B3
:1005A00077FD08D00BD007FC05D03EF490958195DF
:1005B0009F4F0895709561957F4F0895AA1BBB1BAF
:1005C00051E107C0AA1FBB1FA617B70710F0A61B53
:1005D000B70B881F991F5A95A9F780959095BC0174
:0805E000CD010895F894FFCF4E
:1005E8007D03010101323201013030303808010247
:1005F800060F0048656C6C6F2C20776F726C642155
:100608000030313233343536373839414243444586
:0206180046009A
:00000001FF
