:100000000EC026C025C0C7C023C022C021C020C04A
:1000100050C01EC07BC11CC056C01AC019C01124DC
:100020001FBECFEDCDBF10E0A0E6B0E0E8E2F5E006
:1000300002C005900D92A239B107D9F710E0A2E9EC
:10004000B0E001C01D92A93EB107E1F726D06AC217
:10005000D7CF95B7977E982B95BFF89485B78062D8
:1000600085BF7894889585B78F7D85BF78940895EE
:10007000339A85B7877E886085BF85B7806285BFE4
:1000800078948895F8943699FBCF85B78F7D85BF96
:100090007894339884B195B10895BBD060E081E045
:1000A000DAD083E790E0E4D0C498BC9AF894C49A7C
:1000B000FFCF1F920F920FB60F9211240F900FBE19
:1000C0000F901F9018951F920F920FB60F92112448
:1000D0008F939F9381B5806481BD80919B009091A7
:1000E0009C00019690939C0080939B009F918F9120
:1000F0000F900FBE0F901F90189581B5866481BD3B
:10010000089580B5846080BD80B5816080BD80B574
:10011000826080BD089580B58B7F80BD80B58E7F65
:1001200080BD80B58D7F80BD089520919B0030916A
:100130009C00280F391F80919B0090919C00821792
:100140009307C8F308951FBC80E38EBD80B78F600E
:1001500080BF89B7806489BF089514BE81B5886166
:1001600081BD11BC089580B7876080BF8CB5806564
:100170008CBD84E68BBD87EC8DBD1FBC089588B314
:1001800090E1892788BB0895C49A0895C49808957A
:100190008111FACFFBCF1F920F920FB60F9211244D
:1001A0001FBC0F900FBE0F901F90189527E030E0F6
:1001B00090E0FC01022E02C0F595E7950A94E2F763
:1001C000E0FF02C0C09A01C0C098C29A52E05A959E
:1001D000F1F700C0C2982150310958F7C29A82E065
:1001E0008A95F1F700C0C298662311F0C09A01C049
:1001F000C098C19A92E09A95F1F700C0C19880E04A
:10020000841731F05AE65A95F1F700C08F5FF8CFA6
:1002100008950F931F93CF93DF9387B3876087BBB6
:100220002FEF89EF90E0215080409040E1F700C02F
:100230000000C9E6D0E000E610E08991882331F0A3
:10024000F80141918F0160E0B1DFF7CFDF91CF91ED
:100250001F910F910895982F80FD02C080E801C082
:1002600080EC860F923008F0805F41E060E09ECF26
:10027000CF93DF93EC018991882321F041E061E085
:1002800095DFF9CFDF91CF910895CF93C82FE82F55
:10029000F0E084E0F595E7958A95E1F7EF57FF4F99
:1002A00041E061E0808182DFCF70EC2FF0E0EF571A
:1002B000FF4F41E061E08081CF9178CF1F93CF93D2
:1002C000DF93EC011CE0FE01012E02C0F695E795DC
:1002D0000A94E2F7EF70FF27EF57FF4F41E061E02C
:1002E000808164DF14501C3F71F7DF91CF911F9123
:1002F00008958BE790E090939E0080939D00089571
:100300009093A00080939F0080E008951F920F9229
:100310000FB60F9211248F939F93EF93FF938091C9
:10032000AC00813019F58091AB008150E9F48091E7
:10033000A8009091A90080FF02C0C49801C0C49A8F
:100340008091A8009091A900969587959093A90017
:100350008093A8008091AA0081508093AA00811107
:1003600002C01092AC0083E08093AB008091C60085
:10037000811154C08091A7008823E9F08091A500E5
:1003800081508093A500811149C01092A70010925E
:10039000C500E091C800F0E08091A300E753FF4F53
:1003A00080838091C8008F5F8093C8008032B0F155
:1003B0001092C80033C08091C500811110C0B3995C
:1003C0002DC081E08093C5001092A30094E090932B
:1003D000A50098E09093A4008093A6001FC0809190
:1003E000A5008150C9F4B39B07C09091A3008091F0
:1003F000A600892B8093A3008091A600880F80938C
:10040000A6008091A40081508093A400811103C0B4
:1004100081E08093A70083E08093A500FF91EF9196
:100420009F918F910F900FBE0F901F901895109273
:10043000AC001092C5001092C600C498BC9ABB983C
:100440009FB7F89484E489BD82E08ABD83E083BFCE
:1004500089B7806189BF12BE9FBF08951092C60000
:10046000089581E08093C60008959091C70080911F
:10047000C8009817E1F3E92FF0E0E753FF4F8081C0
:100480009F5F903218F49093C70008951092C700B0
:1004900008952091C80081E09091C700291301C000
:1004A00080E008951092C8001092C70008959091BE
:1004B000AC0081E0913009F080E008959091AC00AB
:1004C0009130E1F393E09093AB009AE09093AA000F
:1004D00090E0880F991F92609093A9008093A800E4
:1004E00081E08093AC000895CF93DF93EC01899174
:1004F000882311F0E3DFFBCFDF91CF910895CF93F5
:10050000DF93FC018491EF012196882319F0D6DF57
:10051000FE01F8CFDF91CF9108958BB780628BBF3A
:08052000AD9A0895F894FFCF95
:100528007D03010101323201013030303808010207
:10053800060F0048656C6C6F2C20776F726C642115
:100548000030313233343536373839414243444547
:0205580046005B
:00000001FF
