:100000000EC026C025C024C023C022C021C020C0ED
:100010001FC01EC01DC01CC01BC01AC019C01124A7
:100020001FBECFEDCDBF10E0A0E6B0E0E8EDF1E0FF
:1000300002C005900D92A438B107D9F710E0A4E8EA
:10004000B0E001C01D92A838B107E1F728D0C2C0C6
:10005000D7CF95B7977E982B95BFF89485B78062D8
:1000600085BF7894889585B78F7D85BF78940895EE
:1000700014BE81B5886181BD11BC089587B58F77A5
:1000800087BD87B5866087BD84E080BF8CB58065FD
:100090008CBD84E68BBD86ED8DBD1FBC0895C398D5
:1000A000BB9AECDFFFCF27E030E090E0FC01022EAE
:1000B00002C0F595E7950A94E2F7E0FF02C0C09A06
:1000C00001C0C098C29A52E05A95F1F700C0C29898
:1000D0002150310958F7C29A82E08A95F1F700C0A1
:1000E000C298662311F0C09A01C0C098C19A92E0EC
:1000F0009A95F1F700C0C19880E0841731F05AE674
:100100005A95F1F700C08F5FF8CF08950F931F93B2
:10011000CF93DF9387B3876087BB2FEF89EF90E0A2
:10012000215080409040E1F700C00000C9E6D0E0D7
:1001300000E610E08991882331F0F80141918F01A8
:1001400060E0B1DFF7CFDF91CF911F910F9108955C
:10015000982F80FD02C080E801C080EC860F9230AD
:1001600008F0805F41E060E09ECFCF93DF93EC0129
:100170008991882321F041E061E095DFF9CFDF919B
:10018000CF9108951F93CF93DF93EC011CE0FE0104
:10019000012E02C0F695E7950A94E2F7EF70FF276B
:1001A000ED58FF4F41E061E080817DDF14501C3F3E
:1001B00071F7DF91CF911F9108958BE790E09093B5
:1001C0008500809384000895909387008093860033
:0801D00080E00895F894FFCFD0
:1001D8007D0301010132320101303030380801025B
:1001E800060F00303132333435363738394142431F
:0401F8004445460034
:00000001FF
